{
  "_format": "hh-sol-artifact-1",
  "contractName": "Tweets",
  "sourceName": "contracts/Tweets.sol",
  "abi": [
    {
      "inputs": [],
      "stateMutability": "nonpayable",
      "type": "constructor"
    },
    {
      "anonymous": false,
      "inputs": [
        {
          "indexed": false,
          "internalType": "address",
          "name": "tweeter",
          "type": "address"
        },
        {
          "indexed": false,
          "internalType": "uint256",
          "name": "id",
          "type": "uint256"
        },
        {
          "indexed": false,
          "internalType": "string",
          "name": "tweetTxt",
          "type": "string"
        },
        {
          "indexed": false,
          "internalType": "string",
          "name": "tweetImg",
          "type": "string"
        }
      ],
      "name": "tweetCreated",
      "type": "event"
    },
    {
      "inputs": [
        {
          "internalType": "string",
          "name": "_tweetTxt",
          "type": "string"
        },
        {
          "internalType": "string",
          "name": "_tweetImg",
          "type": "string"
        }
      ],
      "name": "addTweet",
      "outputs": [],
      "stateMutability": "payable",
      "type": "function"
    },
    {
      "inputs": [],
      "name": "counter",
      "outputs": [
        {
          "internalType": "uint256",
          "name": "",
          "type": "uint256"
        }
      ],
      "stateMutability": "view",
      "type": "function"
    },
    {
      "inputs": [
        {
          "internalType": "uint256",
          "name": "_id",
          "type": "uint256"
        }
      ],
      "name": "getTweet",
      "outputs": [
        {
          "internalType": "string",
          "name": "",
          "type": "string"
        },
        {
          "internalType": "string",
          "name": "",
          "type": "string"
        },
        {
          "internalType": "address",
          "name": "",
          "type": "address"
        }
      ],
      "stateMutability": "view",
      "type": "function"
    },
    {
      "inputs": [],
      "name": "owner",
      "outputs": [
        {
          "internalType": "address",
          "name": "",
          "type": "address"
        }
      ],
      "stateMutability": "view",
      "type": "function"
    },
    {
      "inputs": [
        {
          "internalType": "uint256",
          "name": "",
          "type": "uint256"
        }
      ],
      "name": "tweets",
      "outputs": [
        {
          "internalType": "address",
          "name": "tweeter",
          "type": "address"
        },
        {
          "internalType": "uint256",
          "name": "id",
          "type": "uint256"
        },
        {
          "internalType": "string",
          "name": "tweetTxt",
          "type": "string"
        },
        {
          "internalType": "string",
          "name": "tweetImg",
          "type": "string"
        }
      ],
      "stateMutability": "view",
      "type": "function"
    }
  ],
  "bytecode": "0x608060405234801561001057600080fd5b506000600181905550336000806101000a81548173ffffffffffffffffffffffffffffffffffffffff021916908373ffffffffffffffffffffffffffffffffffffffff160217905550610c86806100686000396000f3fe60806040526004361061004a5760003560e01c806361bc221a1461004f5780637e75b4081461007a5780638da5cb5b14610096578063c3ad5ecb146100c1578063e8d857b014610100575b600080fd5b34801561005b57600080fd5b50610064610140565b604051610071919061097e565b60405180910390f35b610094600480360381019061008f9190610749565b610146565b005b3480156100a257600080fd5b506100ab6102ea565b6040516100b8919061088b565b60405180910390f35b3480156100cd57600080fd5b506100e860048036038101906100e391906107c1565b61030e565b6040516100f7939291906108f9565b60405180910390f35b34801561010c57600080fd5b50610127600480360381019061012291906107c1565b6104c1565b60405161013794939291906108a6565b60405180910390f35b60015481565b655af3107a4000341461018e576040517f08c379a00000000000000000000000000000000000000000000000000000000081526004016101859061095e565b60405180910390fd5b60006002600060015481526020019081526020016000209050828160020190805190602001906101bf929190610621565b50818160030190805190602001906101d8929190610621565b50338160000160006101000a81548173ffffffffffffffffffffffffffffffffffffffff021916908373ffffffffffffffffffffffffffffffffffffffff16021790555060015481600101819055507f7833935c4a0db647706761b6cf59177b216d1d35e41408f8f7d54ce993064a3533600154858560405161025e94939291906108a6565b60405180910390a16001600081548092919061027990610aec565b919050555060008054906101000a900473ffffffffffffffffffffffffffffffffffffffff1673ffffffffffffffffffffffffffffffffffffffff166108fc349081150290604051600060405180830381858888f193505050501580156102e4573d6000803e3d6000fd5b50505050565b60008054906101000a900473ffffffffffffffffffffffffffffffffffffffff1681565b60608060006001548410610357576040517f08c379a000000000000000000000000000000000000000000000000000000000815260040161034e9061093e565b60405180910390fd5b600060026000868152602001908152602001600020905080600201816003018260000160009054906101000a900473ffffffffffffffffffffffffffffffffffffffff168280546103a790610a89565b80601f01602080910402602001604051908101604052809291908181526020018280546103d390610a89565b80156104205780601f106103f557610100808354040283529160200191610420565b820191906000526020600020905b81548152906001019060200180831161040357829003601f168201915b5050505050925081805461043390610a89565b80601f016020809104026020016040519081016040528092919081815260200182805461045f90610a89565b80156104ac5780601f10610481576101008083540402835291602001916104ac565b820191906000526020600020905b81548152906001019060200180831161048f57829003601f168201915b50505050509150935093509350509193909250565b60026020528060005260406000206000915090508060000160009054906101000a900473ffffffffffffffffffffffffffffffffffffffff169080600101549080600201805461051090610a89565b80601f016020809104026020016040519081016040528092919081815260200182805461053c90610a89565b80156105895780601f1061055e57610100808354040283529160200191610589565b820191906000526020600020905b81548152906001019060200180831161056c57829003601f168201915b50505050509080600301805461059e90610a89565b80601f01602080910402602001604051908101604052809291908181526020018280546105ca90610a89565b80156106175780601f106105ec57610100808354040283529160200191610617565b820191906000526020600020905b8154815290600101906020018083116105fa57829003601f168201915b5050505050905084565b82805461062d90610a89565b90600052602060002090601f01602090048101928261064f5760008555610696565b82601f1061066857805160ff1916838001178555610696565b82800160010185558215610696579182015b8281111561069557825182559160200191906001019061067a565b5b5090506106a391906106a7565b5090565b5b808211156106c05760008160009055506001016106a8565b5090565b60006106d76106d2846109be565b610999565b9050828152602081018484840111156106f3576106f2610bc7565b5b6106fe848285610a47565b509392505050565b600082601f83011261071b5761071a610bc2565b5b813561072b8482602086016106c4565b91505092915050565b60008135905061074381610c39565b92915050565b600080604083850312156107605761075f610bd1565b5b600083013567ffffffffffffffff81111561077e5761077d610bcc565b5b61078a85828601610706565b925050602083013567ffffffffffffffff8111156107ab576107aa610bcc565b5b6107b785828601610706565b9150509250929050565b6000602082840312156107d7576107d6610bd1565b5b60006107e584828501610734565b91505092915050565b6107f781610a0b565b82525050565b6000610808826109ef565b61081281856109fa565b9350610822818560208601610a56565b61082b81610bd6565b840191505092915050565b6000610843600e836109fa565b915061084e82610be7565b602082019050919050565b60006108666013836109fa565b915061087182610c10565b602082019050919050565b61088581610a3d565b82525050565b60006020820190506108a060008301846107ee565b92915050565b60006080820190506108bb60008301876107ee565b6108c8602083018661087c565b81810360408301526108da81856107fd565b905081810360608301526108ee81846107fd565b905095945050505050565b6000606082019050818103600083015261091381866107fd565b9050818103602083015261092781856107fd565b905061093660408301846107ee565b949350505050565b6000602082019050818103600083015261095781610836565b9050919050565b6000602082019050818103600083015261097781610859565b9050919050565b6000602082019050610993600083018461087c565b92915050565b60006109a36109b4565b90506109af8282610abb565b919050565b6000604051905090565b600067ffffffffffffffff8211156109d9576109d8610b93565b5b6109e282610bd6565b9050602081019050919050565b600081519050919050565b600082825260208201905092915050565b6000610a1682610a1d565b9050919050565b600073ffffffffffffffffffffffffffffffffffffffff82169050919050565b6000819050919050565b82818337600083830152505050565b60005b83811015610a74578082015181840152602081019050610a59565b83811115610a83576000848401525b50505050565b60006002820490506001821680610aa157607f821691505b60208210811415610ab557610ab4610b64565b5b50919050565b610ac482610bd6565b810181811067ffffffffffffffff82111715610ae357610ae2610b93565b5b80604052505050565b6000610af782610a3d565b91507fffffffffffffffffffffffffffffffffffffffffffffffffffffffffffffffff821415610b2a57610b29610b35565b5b600182019050919050565b7f4e487b7100000000000000000000000000000000000000000000000000000000600052601160045260246000fd5b7f4e487b7100000000000000000000000000000000000000000000000000000000600052602260045260246000fd5b7f4e487b7100000000000000000000000000000000000000000000000000000000600052604160045260246000fd5b600080fd5b600080fd5b600080fd5b600080fd5b6000601f19601f8301169050919050565b7f4e6f207375636820547765657421000000000000000000000000000000000000600082015250565b7f506c656173652073656e642031204d6174696300000000000000000000000000600082015250565b610c4281610a3d565b8114610c4d57600080fd5b5056fea26469706673582212207be527b63df24ed4e6abe938301d93383576d1f36cafd83e8dce3541e2e575ac64736f6c63430008070033",
  "linkReferences": {},
  "deployedLinkReferences": {}
}